:020000040000FA
:100000000C9408040C9439040C9439040C943904AD
:100010000C9439040C9439040C9439040C9439046C
:100020000C9439040C9439040C9439040C9439045C
:100030000C9439040C9439040C9439040C9439044C
:100040000C9439040C9439040C9439040C9439043C
:100050000C9439040C9439040C9439040C944F32E8
:100060000C9439040C9419320C94EF310C9439042B
:100070000C9439040C9439040C9439040C9439040C
:100080000C9439040C9439040C9439040C943904FC
:100090000C94B9310C948F310C9439040C943904BC
:1000A0000C9439040C9439040C9439040C943904DC
:1000B0000C9439040C9439040C9439040C943904CC
:1000C0000C9439040C9439040C9439040C943904BC
:1000D0000C9439040C9439040C9439040C943904AC
:1000E0000C9439040C94A70B0C943D370C943622D5
:1000F0000C9422370C942F290C943E070C94B10CCD
:100100000C94EE210C94E3210C94EB270C941C2806
:100110000C94FB220C947A290C9499210C941B05C5
:100120000C941C0D0C944B370C9402270C94F9047E
:100130000C94830A0C94130E0C948E2B0C9493073E
:100140000C94572A0C94AE0C0C9465100C945D051D
:100150000C94152C0C940D050C944B0F0C94191049
:100160000C942F2E0C9462090C945F0E0C94B40C1A
:100170000C94A60B0C944F370C9438230C945A14FF
:100180000C94190E0C94EA040C941C070C94C828C7
:100190000C94EB320C9459370C94462A0C94362765
:1001A0000C941A370C9455370C9469100C94491020
:1001B0000C9491160C94301D0C94FF220C9429374A
:1001C0000C94EB080C94A31B0C944B210C94292A3F
:1001D0000C941E370C94A8270C94AC2C0C9404227D
:1001E0000C94160E0C9459360C94C30C0C94A63235
:1001F0000C943A080C9441370C94AC0B0C94BD0C45
:100200000C941F0D0C9426370C94BD040C945E2B9B
:100210000C94A3180C942B090C94901C0C94F328A8
:100220000C94BA0C0C9421090C94C00C0C94572615
:100230000C94A9210C9452280C9460210C9414283D
:100240000C9430260C94CC270C9449220C943B0837
:100250000C9499320C9454360C9447370C942F37E5
:100260000C94B70C0C94D3080C947B2A0C941B2789
:100270000C94A40B0C94C60C0C9426090C94200826
:100280000C94B7260C9433370C94BB280C94750F40
:100290000C94C5050C94220D0C9439370000000015
:1002A000963007772C610EEEBA51099919C46D0783
:1002B0008FF46A7035A563E9A395649E3288DB0EDE
:1002C000A4B8DC791EE9D5E088D9D2972B4CB609C1
:1002D000BD7CB17E072DB8E7911DBF906410B71D9E
:1002E000F220B06A4871B9F3DE41BE847DD4DA1AD7
:1002F000EBE4DD6D51B5D4F4C785D38356986C1308
:10030000C0A86B647AF962FDECC9658A4F5C011480
:10031000D96C0663633D0FFAF50D088DC8206E3B5E
:100320005E10694CE44160D5727167A2D1E4033C70
:1003300047D4044BFD850DD26BB50AA5FAA8B53597
:100340006C98B242D6C9BBDB40F9BCACE36CD83286
:10035000755CDF45CF0DD6DC593DD1ABAC30D9262D
:100360003A00DE518051D7C81661D0BFB5F4B42130
:1003700023C4B3569995BACF0FA5BDB89EB802282D
:100380000888055FB2D90CC624E90BB1877C6F2FB2
:10039000114C6858AB1D61C13D2D66B69041DC76AD
:1003A0000671DB01BC20D2982A10D5EF8985B17186
:1003B0001FB5B606A5E4BF9F33D4B8E8A2C9077835
:1003C00034F9000F8EA8099618980EE1BB0D6A7FCC
:1003D0002D3D6D08976C6491015C63E6F4516B6B85
:1003E00062616C1CD83065854E0062F2ED95066C3A
:1003F0007BA5011BC1F4088257C40FF5C6D9B065AF
:1004000050E9B712EAB8BE8B7C88B9FCDF1DDD620B
:10041000492DDA15F37CD38C654CD4FB5861B24D71
:10042000CE51B53A7400BCA3E230BBD441A5DF4A3B
:10043000D795D83D6DC4D1A4FBF4D6D36AE96943FE
:10044000FCD96E34468867ADD0B860DA732D0444A9
:10045000E51D03335F4C0AAAC97C0DDD3C710550D4
:10046000AA41022710100BBE86200CC925B568577B
:10047000B3856F2009D466B99FE461CE0EF9DE5EC4
:1004800098C9D9292298D0B0B4A8D7C7173DB35975
:10049000810DB42E3B5CBDB7AD6CBAC02083B8ED06
:1004A000B6B3BF9A0CE2B6039AD2B1743947D5EA13
:1004B000AF77D29D1526DB048316DC73120B63E342
:1004C000843B64943E6A6D0DA85A6A7A0BCF0EE4A1
:1004D0009DFF099327AE000AB19E077D44930FF05C
:1004E000D2A3088768F2011EFEC206695D5762F753
:1004F000CB67658071366C19E7066B6E761BD4FE90
:10050000E02BD3895A7ADA10CC4ADD676FDFB9F96C
:10051000F9EFBE8E43BEB717D58EB060E8A3D6D62E
:100520007E93D1A1C4C2D83852F2DF4FF167BBD15C
:100530006757BCA6DD06B53F4B36B248DA2B0DD85F
:100540004C1B0AAFF64A0336607A0441C3EF60DF02
:1005500055DF67A8EF8E6E3179BE69468CB361CBEB
:100560001A8366BCA0D26F2536E2685295770CCC10
:1005700003470BBBB91602222F260555BE3BBAC551
:10058000280BBDB2925AB42B046AB35CA7FFD7C242
:1005900031CFD0B58B9ED92C1DAEDE5BB0C2649B33
:1005A00026F263EC9CA36A750A936D02A906099C66
:1005B0003F360EEB8567077213570005824ABF95D9
:1005C000147AB8E2AE2BB17B381BB60C9B8ED2925C
:1005D0000DBED5E5B7EFDC7C21DFDB0BD4D2D386B3
:1005E00042E2D4F1F8B3DD686E83DA1FCD16BE8126
:1005F0005B26B9F6E177B06F7747B718E65A0888F7
:10060000706A0FFFCA3B06665C0B0111FF9E658F87
:1006100069AE62F8D3FF6B6145CF6C1678E20AA031
:10062000EED20DD75483044EC2B30339612667A7B7
:10063000F71660D04D476949DB776E3E4A6AD1AE06
:10064000DC5AD6D9660BDF40F03BD83753AEBCA995
:10065000C59EBBDE7FCFB247E9FFB5301CF2BDBD02
:100660008AC2BACA3093B353A6A3B4240536D0BA0B
:100670009306D7CD2957DE54BF67D9232E7A66B3A8
:10068000B84A61C4021B685D942B6F2A37BE0BB455
:10069000A18E0CC31BDF055A8DEF022D00000A0B43
:1006A00002090C0D0E080703040100000000000001
:1006B000000000000000000000000000000000003A
:1006C00000000000000000001211100000000000F7
:1006D000000000000000000000000000000000001A
:1006E00000000D0A4F534320646964206E6F74202C
:1006F0007374617274000D0A50533520426C756535
:10070000746F6F7468204C696272617279205374DF
:1007100061727465640009573A200009526967687C
:1007200074486174583A20000956793A2000094CFF
:10073000656674486174583A20000956783A20007A
:100740000D0A4C656674486174593A200000002215
:1007500000250028002B002E00310034000201008B
:1007600000050108010B0100002100240027002AD8
:10077000002D003000330001010000040107010AD0
:100780000105050505070508080808020202020A16
:100790000A08080404040401010101010101010324
:1007A00003030303030303040707070C0C0C0C0CDF
:1007B0000C0C0C0202020206060606060606060BD2
:1007C0000B0B0B0B0B0B0B01021020200808102049
:1007D00040102040800201020108040201010204CD
:1007E000081020408080402010080402018004028C
:1007F00001804020100804020108040201010204E3
:100800000810204080010204081020408000EB32D4
:1008100011241FBECFEFD1E2DEBFCDBF00E00CBF81
:100820002DE0A2EEB4E001C01D92A334B207E1F7BF
:1008300014E0A0E0B2E0E8EEFEE700E00BBF02C08B
:1008400007900D92A23EB107D9F714E0C8E0D4E0BA
:1008500000E006C021970109802FFE010E942D3D76
:10086000C730D10780E00807A9F70E948C350C94A7
:10087000723F0C9400008CBD9DBD0895CF92DF9215
:10088000EF92FF92CF93DF93EC016A017B01E8893D
:10089000F98982E08083C11481EED806E104F10475
:1008A000A1F060E079E08DE390E0A70196010E945D
:1008B0000B3D21503109410951095695479537950E
:1008C0002795211580E1380798F0E889F989108289
:1008D00060E874E88EE190E0A70196010E940B3D6C
:1008E000215031094109510956954795379527956A
:1008F000EC85FD853083EE85FF852083188EEC899D
:10090000FD8986E08083EA89FB898081806180831C
:10091000EA89FB89808188608083EA89FB898081FC
:1009200080688083EA89FB8980818F7D8083DF9165
:10093000CF91FF90EF90DF90CF90089590E0FC0171
:10094000E953F84F24918F57984FFC0184918823E5
:1009500099F090E0880F991FFC01E959F84FA59193
:10096000B491FC01E35BF84F859194918FB7F894B3
:10097000EC91E22BEC938FBF0895AF92BF92CF9290
:10098000DF92EF92FF920F931F93CF93DF936C014F
:100990007B018B01040F151FEB015E01AE18BF0830
:1009A000C017D10759F06991D601ED91FC910190E2
:1009B000F081E02DC6011995892B79F7C501DF91EA
:1009C000CF911F910F91FF90EF90DF90CF90BF904C
:1009D000AF900895FC01538D448D252F30E0842F76
:1009E00090E0821B930B541710F0CF960895019757
:1009F0000895FC01918D828D981761F0A28DAE0F44
:100A0000BF2FB11D5D968C91928D9F5F9F73928FCA
:100A100090E008958FEF9FEF0895FC01918D828DF6
:100A2000981731F0828DE80FF11D858D90E00895C3
:100A30008FEF9FEF0895FC01918D228D892F90E01B
:100A4000805C9F4F821B91098F73992708958DEFCA
:100A500094E00E941B0521E0892B09F420E0822FFD
:100A600008958AE995E00E941B0521E0892B09F48D
:100A700020E0822F0895FC01A48DA80FB92FB11D8D
:100A8000A35ABF4F2C91848D90E001968F739927C4
:100A9000848FA689B7892C93A089B1898C918370A2
:100AA00080648C93938D848D981306C00288F3899B
:100AB000E02D80818F7D80830895EF92FF920F93C8
:100AC0001F93CF93DF93EC0181E0888F9B8D8C8DFA
:100AD00098131AC0E889F989808185FF15C09FB7EE
:100AE000F894EE89FF896083E889F98980818370B1
:100AF000806480839FBF81E090E0DF91CF911F9160
:100B00000F91FF90EF900895F62E0B8D10E00F5F80
:100B10001F4F0F731127E02E8C8D8E110CC00FB656
:100B200007FCFACFE889F989808185FFF5CFCE01EE
:100B30000E943B05F1CFEB8DEC0FFD2FF11DE35A29
:100B4000FF4FF0829FB7F8940B8FEA89FB89808171
:100B50008062CFCF0F931F93CF93DF938C01D0E0B0
:100B6000C0E0F801EC0FFD1F6491662341F08DEFAA
:100B700094E00E945D05892B11F02196F2CFCE0101
:100B8000DF91CF911F910F910895CF93DF93EC01E7
:100B9000888D8823B9F0AA89BB89E889F9898C9165
:100BA00085FD03C0808186FD0DC00FB607FCF7CF21
:100BB0008C9185FFF2CF808185FFEDCFCE010E9421
:100BC0003B05E9CFDF91CF91089580E090E0892B3C
:100BD00029F00E94310581110E94000080E090E020
:100BE000892B29F00E94270581110E94000080E0D6
:100BF00090E0892B49F080E090E0892B29F00E9459
:100C0000000081110E94000080E090E0892B49F0F3
:100C100080E090E0892B29F00E94000081110C9463
:100C2000000008953FB7F8948091E7049091E8049C
:100C3000A091E904B091EA0426B5A89B05C02F3F16
:100C400019F00196A11DB11D3FBFBA2FA92F982FF2
:100C50008827BC01CD01620F711D811D911D42E0ED
:100C6000660F771F881F991F4A95D1F708958F92B5
:100C70009F92AF92BF92CF92DF92EF92FF924B0181
:100C80005C010E9412066B017C010E9412066C1925
:100C90007D098E099F09683E734081059105A8F37F
:100CA00021E0821A9108A108B10888EEC80E83E0FD
:100CB000D81EE11CF11C81149104A104B10429F790
:100CC000FF90EF90DF90CF90BF90AF909F908F906C
:100CD00008952FB7F8946091E3047091E404809133
:100CE000E5049091E6042FBF08950F931F93CF93CF
:100CF000DF93FC018B01EA0180819181892B31F125
:100D00009281992349F128813981232BF9F0D80167
:100D10002D913C91D9014C918381682F691B770BF0
:100D200080819181860F971FDC014C9382818150D5
:100D3000828388819981019799838883D8018D91D5
:100D40009C91119701968D939C93DACF80E0DF916F
:100D5000CF911F910F9108958381828381E0F7CF16
:100D6000DF92EF92FF920F931F93CF93DF93EC01EB
:100D700085E0E62EF12CFE01869FE00DF11D112489
:100D8000908596FF24C0192F177001E085E0D82EBA
:100D90008FEF800F8F3008F001E0602F70E0062F9A
:100DA000D69EF001D79EF00D1124EC0FFD1F80851B
:100DB0008695869586958770181701F16F5F7F4F2E
:100DC000603168F38D81811302C011501D8385E06D
:100DD0008E9DF0018F9DF00D1124EC0FFD1F1086EC
:100DE00081E0818712862296D783C683DF91CF91D7
:100DF0001F910F91FF90EF90DF900895CE010E9418
:100E0000B006C6CFFC0120812EBD9B0121503109C7
:100E100041F051810DB407FEFDCF4EB55EBD41934B
:100E2000F5CF61507109860F971F0DB407FEFDCFF6
:100E30002EB5FC0120830895FC0121E0613499F472
:100E40009C01255B3F4F61E0AC014E5F5F4F158613
:100E5000668717865487438735962E173F07B9F75D
:100E6000FC01158208953585631729F02F5F3596AB
:100E70002031C9F70895622F0C94B006CF93DF9309
:100E8000FC0167FD12C0283080F4442319F08581ED
:100E9000873059F0EF01A1E0B0E08D85882349F15A
:100EA00011962596A031B105C1F780E018C085E004
:100EB0008A9FE0018B9FD00D1124CE0FDF1F4423AA
:100EC00089F081E4888785818F5F858325E02A9F6B
:100ED000C0012B9F900D1124E80FF91F8085DF9131
:100EE000CF91089581E08887F1CF2770687B622BCE
:100EF0000FC06623E1F26770660F660F660F44232A
:100F0000A1F3606485818F5F85838770687F682B1C
:100F100025E02A9FC0012B9F900D1124E80FF91F97
:100F20006087862FDCCFFC0121E0611102C00696AC
:100F300008953585631739F02F5F35962031C9F74D
:100F400090E080E00895069635E0239F800D911D86
:100F500011240895DC01FB018C91823069F030F49A
:100F6000813051F01082118212820FC0863281F0DE
:100F70008C3FC1F7808309C0808311968C911197B3
:100F8000818312968C911297828317961C920895F2
:100F9000808311968C9111978095818312968C9104
:100FA0001297882311F082E0828313968C91139715
:100FB000848314968C911497858315968C9115973C
:100FC000868316968C911697869511F08187DDCFD2
:100FD00081E0FCCFFC018FE7828B838B848B858B38
:100FE000118E128E138E12AE13AE14AE168A178A9D
:100FF00082A9806882AB86A9806886AB88E0818FF1
:1010000082AF85AD807F85AFDF01A75BBF4F1C92AC
:10101000128211861286118A18971C9211971C92BF
:1010200012961C9211961C9211961C9213961C9269
:1010300011971C9211971C92E85BFF4F1082089544
:10104000DC011D961C921D97FC01E65AFF4F108291
:1010500031961082FC0110861186128613862AE0D2
:10106000228BEE59FF4F1082ED91FC910088F1899F
:10107000E02D199408950895FA01DC01AF5ABF4F8D
:101080006C9323812370233059F5228127FF27C0D9
:1010900017972C91237024602C9341E050E09A0123
:1010A000220F331F240F351F280F391FD901AB5BC7
:1010B000BF4F42814F704C932A5B3F4F4481D9010F
:1010C0004C932681FC01ED59FF4F3081321708F413
:1010D0002083FC01EE5AFF4F80818F5F808308954B
:1010E0002230E9F7228143E027FFD8CF42E0D6CF74
:1010F000EF92FF920F931F93CF93DF93EC01FC01CC
:10110000EB5BFF4F1082319688E0808331968CE351
:1011100080833196108231961082319684E08083EC
:1011200031961082319610823196808331961082EA
:1011300031961082319680838E01095A1F4F7E01AD
:101140008FE5E80EF11CD8018D919D918D010097DE
:1011500039F0DC01ED91FC910480F581E02D1995C9
:101160000E151F0581F719AE1AAE1EAE1FAEFE0199
:10117000E859FF4F1082B49710823E9681E0808339
:1011800031961082118212821382709610823296EA
:101190001082CC59DF4F1882DF91CF911F910F91B0
:1011A000FF90EF900895CF93DF93EC010E947808B1
:1011B000FE01EE5BFF4F80819181CC5BDF4FDC0154
:1011C000ED91FC910480F581E02D6881199580E016
:1011D000DF91CF910895FC016C358AE0780731F4F6
:1011E000483E91E2590751F481E008956D3085E061
:1011F000780721F44A3596E05907B1F384858111C7
:101200000FC0858581110CC08685811109C0878535
:10121000811106C08089811103C08189882379F0FA
:101220006C34754061F4483692E05907E9F24F3268
:1012300084E05807C9F281E0453D5340B1F280E0B7
:10124000089581E0603E09F080E008958B599F4F3A
:10125000FC01808108958C5B9F4FFC018081089583
:10126000CF93DF93FC01DA018281882359F081302A
:1012700069F081E023813481232B09F080E0DF9144
:10128000CF9108953483238381E082838381948185
:101290000097B1F02D913C911197232B51F30197B9
:1012A00094838383EB018881998101969983888354
:1012B0008D919C911197019711969C938E93E6CFF7
:1012C0001282D7CF2F923F924F925F926F927F926E
:1012D0008F929F92AF92BF92CF92DF92EF92FF9246
:1012E0000F931F93CF93DF9300D01F92CDB7DEB73C
:1012F0006C017A8369835C834B832C0182E1480E05
:10130000511C83E0282E5601A7E0AA0EB11C12E062
:10131000332433944601B0E18B0E911C3601EBE08F
:101320006E0E711C29813A812115310509F4D4C052
:10133000D60190968C918230F1F0B0F5882309F4B3
:101340005AC0813089F7AE014F5F5F4FBE016D5FBC
:101350007F4FC5010E947506882309F4BDC0D601E0
:101360001596ED91FC911697808191968C939197AB
:10137000818192968C93F6015682458220A2D601F5
:1013800092968C919297843011F493961C92F60168
:1013900081A182508483258136813087278382878B
:1013A000818784E080A305C0833049F3843009F04D
:1013B000BBCFD60192968C91843039F1853009F4F7
:1013C0004FC0823009F079C0AE014F5F5F4FBE0160
:1013D0006D5F7F4FC5010E947506882309F47CC0AC
:1013E000F601858984A3D60116969C928E92159754
:1013F00090961C9297CFF6011483858196819087F1
:1014000087831287118730A29ECFAE014F5F5F4F57
:10141000BE016D5F7F4FC5010E947506882309F4E8
:101420005BC0D60155968C9155978F3FE1F6569645
:101430008C9156978130B9F698969C9198975796CB
:101440008C91992351F0882371F2F60133A292898D
:1014500096A3938997A385A3C6CF813021F6F5CFB4
:10146000AE014F5F5F4FBE016D5F7F4FC5010E94B0
:101470007506882389F1D60193968C9193978823DA
:1014800009F4B1CF12968D919C91009709F4ABCFDE
:10149000DC01ED91FC910190F081E02D7401D60109
:1014A00095960C91959797962C91979796964C9127
:1014B000969794966C91199596CFF60121A122509A
:1014C000330BAE014F5F5F4FBE016D5F7F4FC301B6
:1014D0000E943009811187CF0F900F900F900F90CD
:1014E000DF91CF911F910F91FF90EF90DF90CF9000
:1014F000BF90AF909F908F907F906F905F904F9034
:101500003F902F9008952F923F924F925F926F924B
:101510007F928F929F92AF92BF92CF92DF92EF9283
:10152000FF920F931F93CF93DF9300D01F92CDB7FD
:10153000DEB76C017A8369835C834B832C0182E183
:10154000480E511C83E0282E5601A7E0AA0EB11CBC
:1015500012E0332433944601B0E18B0E911C360126
:10156000EBE06E0E711C29813A812115310509F4D9
:10157000D4C0D60190968C918230F1F0B0F58823DA
:1015800009F45AC0813089F7AE014F5F5F4FBE0149
:101590006D5F7F4FC5010E947506882309F4BDC0A9
:1015A000D6011596ED91FC911697808191968C93BA
:1015B0009197818192968C93F6015682458220A262
:1015C000D60192968C919297843011F493961C9246
:1015D000F60181A18250848325813681308727835B
:1015E0008287818784E080A305C0833049F38430FB
:1015F00009F0BBCFD60192968C91843039F18530B9
:1016000009F44FC0823009F079C0AE014F5F5F4FDF
:10161000BE016D5F7F4FC5010E947506882309F4E6
:101620007CC0F601858984A3D60116969C928E9281
:10163000159790961C9297CFF60114838581968119
:10164000908787831287118730A29ECFAE014F5FAC
:101650005F4FBE016D5F7F4FC5010E9475068823F5
:1016600009F45BC0D60155968C915597803EE1F602
:1016700056968C9156978130B9F698969C9198978A
:1016800057968C91992351F0882371F2F60133A279
:10169000928996A3938997A385A3C6CF813021F61B
:1016A000F5CFAE014F5F5F4FBE016D5F7F4FC5014C
:1016B0000E947506882389F1D60193968C919397A1
:1016C000882309F4B1CF12968D919C91009709F46B
:1016D000ABCFDC01ED91FC910190F081E02D740124
:1016E000D60195960C91959797962C9197979696EB
:1016F0004C91969794966C91199596CFF60121A1ED
:101700002250330BAE014F5F5F4FBE016D5F7F4FC5
:10171000C3010E943009811187CF0F900F900F9065
:101720000F90DF91CF911F910F91FF90EF90DF907D
:10173000CF90BF90AF909F908F907F906F905F9071
:101740004F903F902F90089581E0089508958A5713
:101750009B4FFC0180810895EF92FF920F931F939E
:10176000CF93DF9300D01F921F92CDB7DEB76436C0
:1017700071054CF0FC01EA57FB4F2081F12CE12C64
:10178000222309F452C0DA017B018C01BC01615EA5
:101790007D4FED91FC910190F081E02DCA011995EA
:1017A000B801685E7D4F2FEFDB012C93F801E75EF7
:1017B000FD4F2EEF208331968083319690833196B2
:1017C000292F280F209520833196E0821696FC92CF
:1017D00045E050E030E020E07C01B6E0EB0EF11C8B
:1017E000E416F50634F0A1912A0F311D4F5F5F4FCB
:1017F000F7CF7C01E8E0EE0EF11C800F911FFC0199
:10180000E15EFD4F20952083F1E0EF16F2E0FF0648
:10181000CCF4D80112968D919C91DC01ED91FC9154
:101820000280F381E02DA7011995C7010F900F9059
:101830000F900F900F90DF91CF911F910F91FF901C
:10184000EF90089580E492E09A83898383E08B830C
:1018500086E093E09D838C83D801ED91FC9101900B
:10186000F081E02DAE014F5F5F4F67E070E0C8018F
:101870001995EE24EA94FE2CD8CF2C9808950F9356
:101880001F93CF93DF9300D000D000D01F92CDB72D
:10189000DEB78C0184E392E09A8389831B821C82E9
:1018A0001D821E821F82188619861A86D801ED9124
:1018B000FC910190F081E02DAE014F5F5F4F6AE037
:1018C00070E0C80119950E946906F8016087718768
:1018D000828793872A960FB6F894DEBF0FBECDBFDE
:1018E000DF91CF911F910F9108952C9A0895CF9277
:1018F000DF92EF92FF92DC011D921D921D921C92CD
:101900001397FB0130E020E0419150E0022E02C02D
:10191000440F551F0A94E2F7052E000C660B770B57
:10192000CD90DD90ED90FC9013974C295D296E29A8
:101930007F294D935D936D937C931397285F3F4F61
:101940002032310509F7FF90EF90DF90CF90089596
:10195000FC01408351831282138208958FE393E048
:10196000089580E693E0089584E793E0089585E97B
:1019700093E008958BEA93E0089588E092E008955B
:101980008CEC93E008958DEE93E008954F925F9272
:101990006F927F928F929F92AF92BF92EF92FF923F
:1019A0000F931F93CF93DF9300D01F92CDB7DEB775
:1019B0007C018B01FB018191BF01F7018283CE0184
:1019C00001960E94770C89819A81AB81BC814C0180
:1019D0005D01F5E08F0E911CA11CB11CA8014C5FAC
:1019E0005F4FFA0125E030E02901712C612C481489
:1019F00059046A047B0428F4618161932F5F3F4F8F
:101A0000F3CFF801E80FF91F1482F70154834383E1
:101A100005960F900F900F900F90DF91CF911F912F
:101A20000F91FF90EF90BF90AF909F908F907F901D
:101A30006F905F904F90089580E094E0089581E268
:101A400094E008954F925F926F927F928F929F924F
:101A5000AF92BF92CF92DF92EF92FF920F931F93BC
:101A6000CF93DF93CDB7DEB72C970FB6F894DEBFD8
:101A70000FBECDBF7C018B01DB018C9190E0F701A3
:101A80009383828311962C91922B938382836E5F32
:101A90007F4FCE0101960E94770C89809A80AB809F
:101AA000BC8024013501F6E04F0E511C611C711CF5
:101AB00098012B5F3F4FF90186E090E0AC0170E0A8
:101AC00060E0441555056605770520F44181419392
:101AD0000196F4CFB4016A5F7F4FF801E80DF91D5C
:101AE0001582D70115963C932E931497600F711FA2
:101AF000CE0105960E94770CBAE08B0E911C4D80AA
:101B00005E806F807884C401092C000CAA0BBB0B8B
:101B10005C016D01A40CB51CC61CD71CF801E80DB6
:101B2000F91DAF01401B510B70E060E04A155B05E9
:101B30006C057D0538F42191AF0142505109DA015D
:101B40002C93EFCF480C591CB801640D751DFB0197
:101B500031971082C4010197800F911FF70197837D
:101B60008683CE0109960E94770C92012C5F3F4F2D
:101B700089849A84AB84BC84A901032E000C660B73
:101B8000770B480D591D6A1D7B1DF801E20FF31FED
:101B9000CF01801B910BB0E0A0E084179507A6074A
:101BA000B70728F48191DF0112978C93F1CFC90117
:101BB000880D991DF801E80FF91FDF0111971C929C
:101BC00021503109020F131FD70119961C930E9350
:101BD00018972181428150E070E060E0BA015527FA
:101BE0004427522B2081422B2381722BF7014287FD
:101BF00053876487758704962C960FB6F894DEBFDA
:101C00000FBECDBFDF91CF911F910F91FF90EF904D
:101C1000DF90CF90BF90AF909F908F907F906F900C
:101C20005F904F9008958AE394E008958BE594E0E7
:101C30000895FC01DB014C9150E070E060E04283CC
:101C400053836483758311968C911197582B42832B
:101C500053836483758312968C911297682B428309
:101C600053836483758313968C911397782B4283E7
:101C700053836483758314964C91149750E070E0FD
:101C800060E0468357836087718715968C9115971E
:101C9000582B468357836087718716968C911697C9
:101CA000682B468357836087718717968C91782BB2
:101CB000468357836087718788E090E00895DC0150
:101CC000FB0112968C911297808313968C91139737
:101CD000818314968C911497828315968C91159715
:101CE000838316968C911697848317968C911797F9
:101CF000858318968C911897868319968C91878383
:101D000088E090E00895CF92DF92EF92FF920F93D8
:101D10001F93DC01FB0113960C91139710E030E048
:101D200020E084E036952795179507958A95D1F799
:101D300014964C91149750E070E060E094E0440FEA
:101D4000551F661F771F9A95D1F7042B152B262B4D
:101D5000372B15969C911597492F50E070E060E065
:101D60008CE0440F551F661F771F8A95D1F7042B0F
:101D7000152B262B372B1696CC901697D12CF12CA1
:101D8000E12CB701A60194E1440F551F661F771F90
:101D90009A95D1F744275527607F7727402B512B01
:101DA000622B732B17960C9180E1089F90011124F0
:101DB000207F3770D701C60114E0B695A795979597
:101DC00087951A95D1F7822B932B8F3F27E09207A7
:101DD00009F454C08F3724E0920708F052C08138CC
:101DE00023E09207C4F1805893404F3F2FEF5207F2
:101DF0006207710509F04AC010E030E020E0302FA2
:101E000022271127002700271127222730787695CF
:101E1000679557954795402B512B622B732B092EB5
:101E2000000CAA0BBB0B17E1880F991FAA1FBB1F41
:101E30001A95D1F7842B952BA62BB72B80839183F2
:101E4000A283B38388E090E01F910F91FF90EF9001
:101E5000DF90CF900895893623E0920764F0716097
:101E600021E833E0281B390B04C076956795579518
:101E700047952A95D2F790E080E0B7CF8FEF90E0BA
:101E8000B4CF40E050E0BA018FEF90E04F5F5F4F7A
:101E90006F4F7F4FB1CFEF92FF920F931F93CF936E
:101EA000DF938C017B01BC016E5F7F4FC7010E94F5
:101EB000830EEC01B8016A5F7F4FC7018C0F9D1F35
:101EC0000E94830EC80FD91FB801665F7F4FC701FC
:101ED0008C0F9D1F0E94830E8C0F9D1FDF91CF9151
:101EE0001F910F91FF90EF900895EF92FF920F9343
:101EF0001F93CF93DF937C01EB0102960E944B0F5F
:101F00008C01BE01680F791FC70140960E944B0FDC
:101F1000800F911FDF91CF911F910F91FF90EF9054
:101F200008958F929F92AF92BF92CF92DF92EF92DD
:101F3000FF921F93CF93DF93EC016A017B01DB01DA
:101F4000CA0117E1B595A795979587951A95D1F789
:101F500099276F7777278F3F910509F463C0009722
:101F600009F449C080589C4F188219821A82242F84
:101F70002295220F207E2B834A015B0123E0B69439
:101F8000A794979487942A95D1F78C824A015B0194
:101F90003BE0B694A794979487943A95D1F78D82B5
:101FA000282F2295207FE3E17695679557954795F1
:101FB000EA95D1F7422B4E83F4E095958795FA95F3
:101FC000E1F7182F1F7720E030E0A901C701B60123
:101FD0000E94913A87FD29C01F8388E090E0DF913D
:101FE000CF911F91FF90EF90DF90CF90BF90AF9077
:101FF0009F908F900895411551056105710509F471
:10200000B3CF440F551F661F771F80E893E067FD2D
:1020100006C0440F551F661F771F0197F8CF6F77D3
:102020007727A2CF8FEF97E09FCF812F80688F8394
:10203000D4CFEF92FF920F931F93CF93DF937C0146
:102040008B01FC014281538164817581C8010E942A
:10205000910FEC01F7014681578160857185C801B8
:102060008C0F9D1F0E94910FC80FD91FF701428549
:10207000538564857585C8018C0F9D1F0E94910F43
:102080008C0F9D1FDF91CF911F910F91FF90EF90CB
:102090000895EF92FF920F931F93CF93DF937C01EC
:1020A000EB0102960E9419108C01BE01680F791F86
:1020B000C70140960E941910800F911FDF91CF91A8
:1020C0001F910F91FF90EF90089589599F4F0C94A5
:1020D000EA07CF93DF93EC01EA81FB81309709F0A7
:1020E0001995E881F9810684F785E02DCE01DF910D
:1020F000CF91199408950F931F93CF93DF93D82F07
:10210000C62F8A0180E591E00E943B040E943D0CAD
:10211000D260DEBDF8018C2F882339F00DB407FEA4
:10212000FDCF91919EBD8150F7CFC00FD12FD11D12
:102130000DB407FEFDCF0E94750CCE01DF91CF914B
:102140001F910F9108950F931F93CF93DF931F92C9
:102150001F92CDB7DEB7182F062F80E591E00E94C1
:102160003B040E943D0C126019830A8362E070E018
:10217000CE0101960E9402070E94750C0F900F90ED
:10218000DF91CF911F910F9108958EBD00000DB486
:1021900007FEFDCF8EB50895CF93C82F80E591E05F
:1021A0000E943B040E943D0C8C2F0E94C51080E0D1
:1021B0000E94C510C82F0E94750C8C2FCF910895D6
:1021C0002F923F924F925F926F927F928F929F9247
:1021D000AF92BF92CF92DF92EF92FF920F931F9335
:1021E000CF93DF9300D01F921F92CDB7DEB79D83B0
:1021F0008C834B017A016901FC0111818FEF810F02
:10220000803408F0CBC00E9469062B013C01F8E83D
:102210004F0EF3E15F1E611C711CEC81FD81828118
:1022200060E480FD60E888EE0E94A310312C812FCD
:1022300090E09A838983E114F10409F48BC0098149
:102240001A81E016F10608F487010B83A601602FBE
:1022500080E10E947B10602F88E30E94A310EC8134
:10226000FD816081606280EF0E94A31088EC0E9473
:10227000CC1087FFFBCF60E888EC0E94A31088EFAA
:102280000E94CC108F70382EB12CA12C212C332021
:1022900001F10E946906641975098609970997FF7B
:1022A00018C0F6E03F1609F440C02EE03216B1F037
:1022B00084E0381209C09FEFA91AB90A8114910469
:1022C00089F0A814B90471F460E088E30E94A310B7
:1022D00043C0E01AF10AC00ED11EADCF2394E3E053
:1022E0002E1691F360E088E30E94A310F60160814E
:1022F00080E10E94A3106B8188E30E94A310EC810F
:10230000FD816081606280EF0E94A31088EC0E94D2
:10231000CC1087FFFBCF60E888EC0E94A31088EF09
:102320000E94CC108F70382EB2CF88EF0E94CC1054
:1023300085FB882780F9F1E08F27EC81FD81928170
:1023400080FB90F9928360E490FD60E888EE0E9443
:10235000A310C8CF3110B8CF88EF0E94CC10EC8109
:10236000FD81928185FB90F99283832D0F900F90D0
:102370000F900F900F90DF91CF911F910F91FF90D1
:10238000EF90DF90CF90BF90AF909F908F907F9015
:102390006F905F904F903F902F9008958AED382E68
:1023A000E4CFAF92BF92CF92DF92EF92FF920F9362
:1023B0001F93CF93DF93EC01B62EA42E69010E94E8
:1023C00093077C0186EDE114F10409F447C0D701BD
:1023D000ED91FC91119787ED309709F43FC013966A
:1023E0009C9180E0981731F02081A21629F0339655
:1023F0008F5FF8CFF0E0E0E0D601ED93FC938BED3A
:10240000309761F1228126952695203108F02FE042
:1024100081E090E0A0E0B0E004C0880F991FAA1FFF
:10242000BB1F2A95D2F70197F801918380836B2D0A
:1024300080EE0E94A31088ED0E94CC10D701149664
:102440009C91682F697F992329F0CA58DF4F6881D2
:102450006260682B88ED0E94A31080E0DF91CF912D
:102460001F910F91FF90EF90DF90CF90BF90AF90B2
:1024700008958F929F92AF92BF92CF92DF92EF9288
:10248000FF920F931F93CF93DF93882E962E5A01BE
:102490000E9469066B017C0128E8C20E23E1D21E6E
:1024A000E11CF11C10E000E0D0E0C0E098280E94A0
:1024B00069066C197D098E099F0997FF1EC0692D59
:1024C00080EF0E94A3100E9469066C197D098E0995
:1024D0009F0997FF09C088EC0E94CC1087FFF3CFBB
:1024E00060E888EC0E94A31088EF0E94CC10C82FEF
:1024F000CF70C43081F0CE30B9F08C2FDF91CF9106
:102500001F910F91FF90EF90DF90CF90BF90AF9011
:102510009F908F9008950F5F1F4FA114B10439F25F
:102520000A151B0521F6E9CFDF5FD33009F0BFCFD5
:10253000E4CF88EF0E94CC10807C8034B1F018F496
:10254000882301F10895803819F0803CC9F008957E
:1025500088ED0E94CC1081FD0DC069EC88ED0E94D1
:10256000A31082E08093FC04089588ED0E94CC10B3
:1025700081FDF3CF6BEC88ED0E94A31083E0F2CFD6
:1025800081E0F0CF61ED88ED0E94A3101092FC0471
:102590000895FC0101900020E9F73197AF01481B35
:1025A000590BBC018DEF94E00C94BD048F929F9267
:1025B000AF92BF920F931F93CF93DF93CDB7DEB748
:1025C000A1970FB6F894DEBF0FBECDBF19A242305F
:1025D00008F44AE08E010F5D1F4F842E912CB12C20
:1025E000A12CA50194010E940B3DE62FB901CA015F
:1025F000EA30F4F4E05DD801EE938D01232B242B17
:10260000252B79F790E080E0109719F0CD010E941A
:10261000C912A1960FB6F894DEBF0FBECDBFDF91F1
:10262000CF911F910F91BF90AF909F908F90089581
:10263000E95CE1CF4F925F926F927F928F929F926F
:10264000AF92BF92CF92DF92EF92FF920F931F93C0
:10265000CF936B017C01742EAC019B010E94E23C84
:10266000882399F089E694E0CF911F910F91FF9014
:10267000EF90DF90CF90BF90AF909F908F907F9022
:102680006F905F904F900C94C91246015701E894E7
:10269000B7F82FEF3FEF4FE75FE7C501B4010E94A6
:1026A000E23C81110DC02FEF3FEF4FE75FE7C5011F
:1026B000B4010E94913A18161CF48DE694E0D4CF30
:1026C0002FEF3FEF4FE75FE4C701B6010E94DD3C0B
:1026D00018161CF481E794E0C7CF2FEF3FEF4FE7C8
:1026E0005FECC701B6010E94913A87FDF3CF20E06D
:1026F00030E0A901C701B6010E94913A10E000E064
:1027000087FF0AC06DE28DEF94E00E945D058C01A9
:10271000F7FAF094F7F8F094C0E060E070E080E041
:102720009FE37C1641F020E030E040E251E40E945B
:102730003C3CCF5FF6CFA70196010E94D03B2B0116
:102740003C010E94AE3C4B015C014AE00E94D61263
:102750007C01E00EF11ECC23C1F1C501B4010E9441
:10276000963A9B01AC01C301B2010E94CF3B4B01E1
:102770005C016EE28DEF94E00E945D05E80EF91EAB
:10278000C15018F120E030E040E251E4C501B4014D
:102790000E94F73A2B013C010E94AE3C4B01B12C48
:1027A000A12C4AE0C501B4010E94D612E80EF91E20
:1027B000C501B4010E94963A9B01AC01C301B2016C
:1027C0000E94CF3B4B015C01DBCFC701CF911F9132
:1027D0000F91FF90EF90DF90CF90BF90AF909F90C0
:1027E0008F907F906F905F904F900895CF92DF927F
:1027F000FF920F931F93CF93DF93F62E01E0C82F24
:10280000D0E0CC0FDD1FC25ED24F6E01888199816E
:10281000DC01ED91FC910280F381E02D2F2D40E051
:1028200060E01995182F803E49F561E088EE0E941E
:10283000A31066E670E080E090E00E943706F601A3
:1028400080819181DC01ED91FC910190F081E02D7E
:102850002F2D40E060E01995182F8D3041F58FEF56
:10286000800F833088F061E088EE0E94A31066E656
:1028700070E080E090E00E94370610C08D3061F477
:102880008FEF800F833050F464E670E080E090E0DA
:102890000E9437060F5FBACF882389F2812FDF911C
:1028A000CF911F910F91FF90DF90CF9008958823D3
:1028B000A9F3D9CF0E942A3E2F923F924F925F9266
:1028C0006F927F928F929F92AF92BF92CF92DF9240
:1028D000EF92FF920F931F93CF93DF9300D000D01E
:1028E0001F92CDB7DEB76B015C834B835901E98240
:1028F000F901E080F180FB01F181FA83F901118295
:102900001082FB01828160E181FD60E288EE0E941D
:10291000A310F9814F2E512C712C612CED824B812B
:102920005C81F601608180E00E943912382EF6E069
:102930008F1310C088EF0E94CC10F60192819D7F0A
:1029400084FF9260928360E191FD60E288EE0E94D4
:10295000A310E5CF81115AC088EC0E94CC1082FFF1
:1029600078C080E30E94CC10282E8E151F0411F031
:1029700008F02D80F501808191819701281B390B8A
:102980003F832E8337FF02C01F821E82822C912C30
:102990008E819F818816990614F49F828E8280E52D
:1029A00091E00E943B040E943D0C88E00E94C5100B
:1029B0004E815F8170E060E0C8010E94383EEE8188
:1029C000FF81309721F0BF01C8010E9402072E81CC
:1029D0003F81020F131F0E94750C64E088EC0E9477
:1029E000A310F50180819181880E991E91828082C9
:1029F000FA812F1618F08E149F0410F188EF0E94B0
:102A0000CC10F601928184FB91F99283832D279655
:102A10000FB6F894DEBF0FBECDBFDF91CF911F91EF
:102A20000F91FF90EF90DF90CF90BF90AF909F906D
:102A30008F907F906F905F904F903F902F90089570
:102A4000F981FF2309F46BCFC301B2010E9437065D
:102A500066CF80EF382EDACF2F923F924F925F925F
:102A60006F927F928F929F92AF92BF92CF92DF929E
:102A7000EF92FF920F931F93CF93DF93CDB7DEB703
:102A800060970FB6F894DEBF0FBECDBF3C01F42EA9
:102A9000322ED02E4EA05FA0188A1F861E861D865D
:102AA0008E01035F1F4F9E01215F3F4F0E94D11196
:102AB000182F81117FC03982DA82EB82CC821E828C
:102AC0001D82B886AF82AE014F5F5F4F68E080E243
:102AD0000E947B104D855E856F2D80E10E9439122A
:102AE000182F811167C04114510409F44FC0EF85BC
:102AF000F889828137FE50C082608283650122247A
:102B00002394C114D10409F475C09C868B864D852D
:102B10005E856F857889E12C82019E01255F3F4F9C
:102B2000C3010E945C14182F863071F488EF0E9454
:102B3000CC10EF85F88985FB882780F98225928162
:102B400080FB91F99283DDCF811134C088A599A5CE
:102B50000097A1F06B857C85DC01ED91FC911197CC
:102B60000190F081E02DC5018C199D099A87898714
:102B70009E01275F3F4FA201CD0119958B859C8552
:102B8000C81AD90A8815990508F0BBCF4D855E850E
:102B900037FE2AC080EA29C0816082836D857E85E8
:102BA0009201A401CF010E94E010182F4D855E858F
:102BB0008823D1F0812F60960FB6F894DEBF0FBE48
:102BC000CDBFDF91CF911F910F91FF90EF90DF90DC
:102BD000CF90BF90AF909F908F907F906F905F90BD
:102BE0004F903F902F90089580E86F2D0E943912EA
:102BF000182FE0CF1111DECF4D855E85CBCF8F92A0
:102C00009F92AF92BF92CF92EF920F93CF931F926A
:102C10001F921F921F92912C812CB12CA12CC12CA0
:102C2000E42E05E020E040E00E942C15C82F6CE265
:102C300071E080E090E00E9437060F900F900F90B7
:102C40000F908C2FCF910F91EF90CF90BF90AF90BE
:102C50009F908F9008953F924F925F926F927F92D4
:102C60008F929F92AF92BF92CF92DF92EF92FF929C
:102C70000F931F93CF93DF93CDB7DEB7C054D10925
:102C80000FB6F894DEBF0FBECDBF3C01162FD22E7B
:102C9000332E1F921F92CE0101962C019F938F938A
:102CA00099E0892E912C29E0A22EB12C32E0C32E7E
:102CB000E42E06E020E840E0C3010E942C150F90AE
:102CC0000F900F900F90811113C0AB80BC803F928A
:102CD000DF925F924F9280E4882E912C20E840E0B2
:102CE000612FC3010E942C150F900F900F900F9031
:102CF000C05CDF4F0FB6F894DEBF0FBECDBFDF91D3
:102D0000CF911F910F91FF90EF90DF90CF90BF90E8
:102D1000AF909F908F907F906F905F904F903F907B
:102D200008952F923F924F925F926F927F928F926F
:102D30009F92AF92BF92CF92EF92FF920F931F9309
:102D4000CF93DF93CDB7DEB768970FB6F894DEBFA9
:102D50000FBECDBF3C01162FF42E022F0E94780823
:102D6000C3018C5B9F4F988F8F8BDC018C918111FD
:102D7000A9C0F301EE5BFF4FFC8BEB8B2080318011
:102D8000D101ED91FC910190F081E02D60E0C10155
:102D900019952C01009709F497C0FC010190F0816E
:102DA000E02DFE8BED8BEF2B09F490C0C3018B5B04
:102DB0009F4FD20111969C938E9314960C931F9261
:102DC0001F92CE0101969F938F9382E1882E912CC2
:102DD00092E1A92EB12CCC24C394E12C06E020E88A
:102DE00040E060E0EB89FC89808191810E942C1594
:102DF000082FED89FE89D201ED93FC930F900F907F
:102E00000F900F90811152C0D101ED91FC91028081
:102E1000F381E02D2F2D40E0612FC1011995EF893D
:102E2000F88D808304ED8823B1F09D81993061F1A4
:102E3000F301EA5BFF4F8885808332968A8980831D
:102E4000799689859A859183808332978B859C8535
:102E50009183808300EE802F68960FB6F894DEBFD2
:102E60000FBECDBFDF91CF911F910F91FF90EF90DB
:102E7000CF90BF90AF909F908F907F906F905F901A
:102E80004F903F902F90089540E0682FAB89BC8908
:102E90008D919C910E94FF15D301ED91FC910480CE
:102EA000F581E02DC301199501EDD5CF8D3009F0E5
:102EB00001EED301ED91FC910480F581E02DC30179
:102EC0001995C9CF09EDC7CF06EDC5CF07EDC3CF23
:102ED0008F929F92AF92BF92CF92EF920F931F92D9
:102EE0001F921F921F92912C812CB12CA12CC12CCE
:102EF000E22E09E020E00E942C150F900F900F9019
:102F00000F900F91EF90CF90BF90AF909F908F90C8
:102F100008958F929F92AF92BF92CF92EF920F93AC
:102F2000FC01EF58FF4F208131812E7F31832083B8
:102F3000DC01AB5BBF4FBD978E5B9F4F1F921F9213
:102F40007F936F934A015A01C12CE12C00E020E2EB
:102F50004C916081FC01808191810E942C150F9021
:102F60000F900F900F900F91EF90CF90BF90AF9078
:102F70009F908F900895FC01EF58FF4F2081318181
:102F80002B7F31832083339626E02083DC01AB58EE
:102F9000BF4F24E02C93119623E02C9311966C9351
:102FA00011967F707C93119623E12C9346E050E0BC
:102FB000BF010C948917CF93DF93FC01BC016C58BF
:102FC0007F4F8DE0DB018C93119684E08C931196FA
:102FD00087E18C93119684898C93119685898C93C3
:102FE000119686898C93119687898C931196808D82
:102FF0008C931196818D8C9323ADCF0183589F4F75
:10300000222389F126E0EC01288356978C918823AE
:10301000E9F0AA55B109CF0142962D91ED01CF58A3
:10302000DF4F2883A817B907C1F7DF01AC57BF4F9F
:10303000CF0182579F4F1D928A179B07E1F74AE104
:1030400050E0CF01DF91CF910C948917DF015496A6
:10305000CF014A962D91ED01C759DF4F2883A8175C
:10306000B907C1F7E2CFA285B385ED010990002031
:10307000E9F72197AE014A1B5B0BEC01488320E086
:10308000822F90E0ED0109900020E9F72197CA1BFB
:10309000DB0B8C179D0750F082589F4FDF01A80F64
:1030A000B91F203160F61D922F5FFBCFEF01C80FD3
:1030B000D91FAE0142585F4F8A0F9B1FEC018881D8
:1030C000EA0188832F5FDCCFFC01DC01AF58BF4FE2
:1030D0008D919C9111978D7F9E7F8D939C93BF01C5
:1030E0006C587F4F85E0DB018C93119684E08C93C4
:1030F00011968DE08C93119684898C931196858915
:103100008C93119686898C93119687898C9311964E
:10311000808D8C931196818D8C93119688E18C9380
:1031200011968CEC8C93119681E08C9311961C92E5
:1031300011961C9211961C9211961C9240E150E03F
:10314000CF010C9489172F923F924F925F926F920A
:103150007F928F929F92AF92BF92CF92DF92EF9227
:10316000FF920F931F93CF93DF93CDB7DEB7AE9748
:103170000FB6F894DEBF0FBECDBF3C01D22EFC01CE
:10318000E85BFF4F20812CA710821C0132E4230E44
:10319000311CD1010D911C912C01B4E44B0E511C3A
:1031A000D801ED91FC910190F081E02DD2016C915C
:1031B000C80119957C01892BE1F416EDB12E8B2DF8
:1031C000AE960FB6F894DEBF0FBECDBFDF91CF91A4
:1031D0001F910F91FF90EF90DF90CF90BF90AF9035
:1031E0009F908F907F906F905F904F903F902F9027
:1031F00008956CE271E080E090E00E943706F201F1
:10320000408160E0D1018D919C910E94FF15B82E04
:10321000882359F0F7011482D301ED91FC910480C9
:10322000F581E02DC3011995CACFD70114961C92E0
:10323000D801ED91FC910190F081E02DD2016C91CB
:10324000C8011995009709F4B8CFFC01D482D101C7
:103250008D919C91F301EB5BFF4FFBA7EAA7D20195
:103260001C91EF2B09F47CC1612F0E949307FC0194
:10327000892B19F4B6EDBB2ECFCF12832AA53BA51F
:103280003183208381E08383430131E6830E911CE7
:10329000D4018D919C918C34954009F0C4C0830178
:1032A000015A1F4FF801808191818836F2E09F0713
:1032B00041F08F3224E0920721F0853D934009F0E0
:1032C000B2C064E670E080E090E00E94370621E042
:1032D000AAA5BBA54C91F2016081D1018D919C9171
:1032E0000E946817B82E811197CFF3018485811150
:1032F0000FC0858581110CC08685811109C0878525
:10330000811106C08089811103C081898823F1F170
:10331000D8018D919C91A301445F5F4FB3016E5E14
:103320007F4F8836B2E09B0721F08F32944009F03E
:103330004BC081E089831A82DB01CE0103962E9176
:10334000FC012193CF014A175B07C9F71F921F9217
:10335000CE0101969F938F9378E0872E912CE8E021
:10336000AE2EB12CF3E0CF2EA5EFEA2E09E021E23C
:10337000AAA5BBA54C91F2016081D1018D919C91D0
:103380000E942C150F900F900F900F9020E0AAA58F
:10339000BBA54C91F2016081D1018D919C910E945D
:1033A000681740E0F2016081D1018D919C910E94EB
:1033B000FF15D301ED91FC910480F581E02DC3014F
:1033C000199521EDB22EFBCE85E0898380E18887B7
:1033D00081E0898782E08A8782E18B87FA01CE01CA
:1033E00002962191DC012D93CD01E617F707C9F76D
:1033F0001F921F92CE0101969F938F933BE0832EE5
:10340000912C4BE0A42EB12C53E0C52E65E0E62EA6
:1034100009E021E2EAA5FBA54081D2016C91F1010E
:1034200080819181ADCFA12CF30132967F018E0175
:103430000F5E1F4F6301FFE5CF0ED11C93012E5A83
:103440003F4F3EA72DA73CA5A31609F446C0D401C3
:103450008D919C918C35BAE09B0789F5F6018081AE
:103460009181883E9142A1F5ECE4F2E0FA83E98390
:10347000FC82EB821D821A861B861E86188A1F8696
:1034800019A21AA21BA219A61F830E8319870887E7
:103490001D870C879E012F5F3F4F4A2DD2016C91F3
:1034A000F101808191810E942B16B82E8111B4CE3A
:1034B000ADA5BEA58C91843080F4A394C4CF8D308B
:1034C000954031F4D6018D919C918A35964061F2F8
:1034D00022E532E03A832983CBCFF301EE5AFF4F46
:1034E0000081F10180819181D2011C91043088F129
:1034F000612F0E949307FC01892B09F4BBCE128334
:103500002AA53BA5318320830383F301EF5AFF4FA4
:103510002081AAA5BBA54C91F2016081D1018D91BA
:103520009C910E946817B82E811176CEF301E15963
:10353000FF4F84E690E0918380833297118210825E
:1035400031971082F3011482EB59FF4F81E08083A1
:1035500036CE40E0612F0E94FF1591EDB92E5CCE72
:1035600088EDB82E59CE8F929F92AF92BF92CF9294
:10357000DF92EF920F931F93CF93DF9300D01F92B0
:10358000CDB7DEB76C01590148011C821B821A823B
:1035900019828E010F5F1F4F9E012D5F3F4F0E94CA
:1035A000D111811109C049815A816B817C818401CB
:1035B0009501C6010E945C140F900F900F900F9020
:1035C000DF91CF911F910F91EF90DF90CF90BF903F
:1035D000AF909F908F9008958F929F92AF92BF92DD
:1035E000CF92DF92EF920F931F93CF93DF9300D090
:1035F0001F92CDB7DEB78DB69EB6A22FB0E05D01AB
:1036000038E0A30EB11CEDB7FEB7EA19FB090FB6FF
:10361000F894FEBF0FBEEDBF31966F01EDB7FEB758
:1036200061837F707062F601718334E0320F328300
:10363000BD016C5F7F4F7383248315820683E7820D
:103640002DB73EB7275F3F4F8A01B801641B750B4A
:103650006A177B0738F4F80161918F01F9016193D2
:103660009F01F3CFFC01EE5BFF4FA081B1813C963F
:1036700040813A9760811C821B821A8219828E01D6
:103680000F5F1F4F9E012D5F3F4FCD010E94D11153
:1036900081110AC069817A819601A5018B819C8183
:1036A0000E94E010882331F064E670E080E090E052
:1036B0000E9437060FB6F8949EBE0FBE8DBE0F90C7
:1036C0000F900F900F90DF91CF911F910F91EF907E
:1036D000DF90CF90BF90AF909F908F900895EF9222
:1036E0000F93FC01AB0166817781E48803892AE0AE
:1036F000848195810E94EC1A0F91EF900895EF92CA
:103700000F93CF93DF931F92CDB7DEB7FC01DC019F
:10371000A75ABF4F8C91823008F01C928C91806721
:10372000898366817781E784068521E0AE014F5F5A
:103730005F4F848195810E94EC1A0F90DF91CF91A9
:103740000F91EF900895EF920F93CF93DF93EC01D9
:10375000FC01E55AFF4F8081882379F18C819D819E
:103760002C852F5F6E817F812C87AC014C505F4F81
:1037700036E0FA01308331962083319624E02083AD
:10378000319610822B89319620832C8931962083A3
:10379000FE01E05AFF4F2081FC01E650FF4F2083DD
:1037A000FE01EF59FF4F2081FC01E550FF4F2083C0
:1037B000E12C01E028E00E94EC1A8C819D812C858F
:1037C0002F5F2C876E817F81AC014C505F4F36E0BC
:1037D000FA01308331962083319624E0208331969C
:1037E0001082288931962083298931962083FE0111
:1037F000E25AFF4F2081FC01E650FF4F2083FE017B
:10380000E15AFF4F2081FC01E550FF4F2083E12C5E
:1038100001E028E00E94EC1AE881F9810480F5813A
:10382000E02DCE0119958EE08A8BCE59DF4F89E0CD
:103830008883DF91CF910F91EF900895EF920F93CE
:10384000FC01EC50FF4F54E05083DC01AB50BF4F04
:103850004C93119648E04C9311961C92D9014C91CF
:10386000DC01A850BF4F4C93D90111962C91DC017B
:10387000A750BF4F2C9311961C9211961C92119633
:1038800021E02C93119622E02C9311962FEF2C938C
:1038900011962C93E12C01E02CE0AF010E94EC1A70
:1038A0000F91EF900895EF920F931F93CF93DF93B3
:1038B000D801FC01EC50FF4F53E05083EC01CB509A
:1038C000DF4F4883219648E0488321961882E9011A
:1038D0004881EC01C850DF4F4883E9012981EC01A0
:1038E000C750DF4F28832C912196288311962C9165
:1038F000DC01A550BF4F2C931196EC9211961C92AF
:1039000011961C9211961C92E12C01E02CE0AF0163
:103910000E94EC1ADF91CF911F910F91EF900895C3
:103920008F929F92AF92BF92CF92DF92EF920F93BE
:103930001F93CF93DF936C0122E6C20ED11CF601D8
:103940002081211148C0EC01EC81FD8186AD8823E6
:1039500009F44DC0858181114AC08D85811147C010
:10396000DE01A65ABF4F8C91811141C081E0858351
:103970008C938C819D81FC01628973897F836E8326
:10398000188619861A861B861C86AC014C505F4F20
:1039900012E0FA01108331961082319624E02083E0
:1039A00031961082319621E1208331961082FE01FA
:1039B000E45AFF4F2081FC01E650FF4F2083C35A99
:1039C000DF4F288131962083E12C01E028E00E941E
:1039D000EC1AF6011083DF91CF911F910F91EF90B8
:1039E000DF90CF90BF90AF909F908F900895888583
:1039F00080FFF1CF5E012EE0A20EB11C4E018CE5DE
:103A0000880E911C6E817F81EE24E39485019401E0
:103A10004C85CF010E94531C61E070E080E090E093
:103A20000E9437066E817F81E12C94014C858C8148
:103A30009D810E94531C8C858F5F8C8761E070E0B4
:103A400080E090E00E9437066E817F8195014C8571
:103A50008C819D810E941E1C84E0F6018083BBCF77
:103A60008F929F92AF92BF92CF92DF92EF92FF928E
:103A70000F931F93CF93DF93EC01FB018D85811191
:103A80001AC080858230B9F484859585019799F4B0
:103A9000AC81BD8116968C91169781110CC081E086
:103AA00016968C93AC81BD8152968D919C919F838B
:103AB0008E838AE08A8B4C815D81DA0115968C9128
:103AC000159781112BC0DF968C91882339F18D8554
:103AD000811124C0CE01865A9F4FDC012C91211107
:103AE0001DC020852230D1F4248535852131310552
:103AF000A9F4DA01DF961C92AC81BD8121E0159614
:103B00002C93DC012C93AC81BD8152968D919C91BC
:103B10009F838E83DE01AE59BF4F1C926E817F81E1
:103B20002081CB0199272817190609F0BCC32181F0
:103B3000872F992780622817190609F0B4C38F01CF
:103B400096818781268137812130310509F07DC238
:103B50008085813079F1833009F0BBC080899189FB
:103B6000892B41F582899389892B21F58685FE0170
:103B7000E05AFF4F9081891368C0F8012785FE0144
:103B8000EF59FF4F9081291360C0D80119964C91CD
:103B900019974C871C968C911C978B8B1D968C913A
:103BA0008C8B4F5F4C879E012D5E3F4F8C819D819A
:103BB0000E941E1C8A898B3009F443C38E3009F49D
:103BC00052C38A3009F023C388859985AA85BB85AD
:103BD00090FFE3C29E7F88879987AA87BB876E8103
:103BE0007F81EE24E3946E01F3E1CF0ED11C8601B8
:103BF0005E0180E6A80EB11C95014C858C819D81EB
:103C00000E94531C61E070E080E090E00E94370663
:103C10006E817F81E12C95014C858C819D810E9474
:103C2000531C8C858F5F8C8761E070E080E090E0B2
:103C30000E9437066E817F8196014C858C819D8123
:103C40000E941E1C8BE08A8BE2C2FE01E45AFF4FE9
:103C5000908189131EC0F8012785FE01E35AFF4FAA
:103C60009081291316C0D80119968C9119978C87C9
:103C70001C968C911C978E871D968C918F878885BA
:103C80009985AA85BB85846088879987AA87BB8721
:103C900091CFFE01E25AFF4F908189138BCFF8013B
:103CA0009785FE01E15AFF4F8081981383CFD80199
:103CB00019968C9119978C871C968C911C97888BE0
:103CC0001D968C91898B88859985AA85BB85806492
:103CD000DBCF823079F5848595858130910561F45B
:103CE00081858C8786858B8B87858C8B888599854C
:103CF000AA85BB859160C8CF8131910561F481852A
:103D00008C8786858E8787858F8788859985AA8504
:103D1000BB858160B9CF439709F04CCF81858C87F3
:103D20008685888B8785898B88859985AA85BB85BB
:103D30008061AACF853009F04DC0DF01808991896B
:103D4000892B09F037CF8485FE01E05AFF4F90811F
:103D5000891310C01D962C911D97319690812913BF
:103D600009C019968C918C8788859985AA85BB8511
:103D700092608ACFFE01E45AFF4F9081891312C0EE
:103D8000F8012585FE01E35AFF4F908129130AC0EF
:103D9000D80119968C918C8788859985AA85BB85D1
:103DA000826072CFFE01E25AFF4F9081891302CFE9
:103DB000F8019585FE01E15AFF4F80819813FACEF4
:103DC000D80119968C918C8788859985AA85BB85A1
:103DD00080625ACF843009F03EC08485FE01E05AEB
:103DE000FF4F9081891312C0D8011D962C911D9709
:103DF0003196908129130AC09E012D5E3F4F19967E
:103E00004C918C819D810E94B232D4CEFE01E45A45
:103E1000FF4F908189130DC0F8012585FE01E35AFB
:103E2000FF4F9081291305C09E01225F3F4FD801AB
:103E3000E6CFFE01E25AFF4F90818913BBCEF80115
:103E40009585FE01E15AFF4F80819E01205F3F4F23
:103E50009813B0CEECCF863009F096C08485FE0171
:103E6000E05AFF4F9081891311C0D8011D962C9103
:103E70001D9731969081291309C019968C918C87D2
:103E800088859985AA85BB859460FECEDE01A45AFB
:103E9000BF4F9C91891340C06E01EDE5CE0ED11C41
:103EA000F8012585F6019081291336C0F801218596
:103EB0002C878C819D81AC014C505F4F37E0FA011B
:103EC00030838C010B501F4FF80120839C012A5036
:103ED0003F4F14E0F90110832F5F3F4FF90110822B
:103EE0002C91DC01A850BF4F2C93D6012C91329617
:103EF00020832E85319620832F8531962083E12CD7
:103F000001E028E00E94EC1AE881F9810480F58143
:103F1000E02DCE0119954ECEDE01A25ABF4F9C91E5
:103F2000891348CE6E01EFE5CE0ED11CF8019585C0
:103F3000F601808198133ECEF80121852C878C8173
:103F40009D81AC014C505F4F37E0FA0130838C010A
:103F50000B501F4FF80120839C012A503F4F14E063
:103F6000F90110832F5F3F4FF90110822C91DC0182
:103F7000A850BF4F2C93D6012C91329620832889CC
:103F8000319620832989B9CF873099F584859B891B
:103F900089130CC025859C89291308C081858C87CD
:103FA00088859985AA85BB8590646ECE9E85891388
:103FB00010C0D8011D962C911D979F85291309C00B
:103FC00019968C918C8788859985AA85BB85886090
:103FD0005BCE98898913EECDF80195858989981370
:103FE000E9CD81858C8788859985AA85BB85806880
:103FF0004BCE8A3009F0DECD21852C878C819D81C6
:104000003585A485AC014C505F4FBBE0FA01B0830D
:1040100031962083319628E02083319610823196A4
:10402000A08331963083319610823196108231967A
:104030001082319610823196108231961082E12CD6
:1040400001E02CE00E94EC1AB5CDFE01E05AFF4FD2
:104050002081921342C03196208182133EC0D80144
:1040600018968C9118978230C1F483E0898F199645
:104070008C9119978A8F1A968C918B8F1C8E85E064
:104080008D8F1E8E1F8E18A219A21AA2BE01675E06
:104090007F4FCE010E946F1B8DCD843079F485E077
:1040A000898FF80191859A8F92859B8F1C8E8D8FB9
:1040B0001E8E82E08F8F85E388A3E6CF863009F0DD
:1040C00079CD1A968C911A9719969C9127E0298F91
:1040D0009A8F8B8F1C8E85E0EACFFE01E25AFF4F4C
:1040E000208192133EC03196208182133AC0F8019C
:1040F0008085813A09F05ECD0E946906FE01ED5986
:10410000FF4F6083718382839383D8011496FC9060
:104110006FEF6F0DE881F9810284F385E02DA8012E
:10412000475F5F4FCE011995F8018185813031F0ED
:10413000823009F03FCD8F89988D02C08D899E898C
:10414000009709F437CD065F1F4F2EEF2F0DDC01CE
:10415000ED91FC910190F081E02D40E0BE011995B8
:1041600029CDFE01E45AFF4F2081921323CD3196D1
:10417000908189131FCDF8018085833A09F01ACD0B
:10418000A801475F5F4F64816150E881F981048431
:10419000F585E02DCE0119950DCD92FF38C09B7F9E
:1041A00088879987AA87BB87FE01E55AFF4F10824F
:1041B0008C819D812C856E817F81AC014C505F4F3D
:1041C00037E0DA013C93FC01EB50FF4F208331963E
:1041D00024E0208331961082FE01E05AFF4F2081B7
:1041E000FC01E850FF4F2083FE01EF59FF4F208173
:1041F000FC01E750FF4F20832B89319620832C89C7
:1042000031962083E12C01E028E00E94EC1A6E0137
:10421000B2E6CB0ED11CD601EC91E250E83008F0AA
:1042200042C0F0E098858827E75EFE4D8F4F0C94E2
:104230002D3D9921A9214B2136226021E321EE2138
:10424000042288859985AA85BB8591FFE0CF9D7F53
:1042500088879987AA87BB8781E0FE01E55AFF4FCF
:1042600080838AE0F0CC88859985AA85BB8596FFF6
:10427000CECF6E817F818C819D810E94BB178FEF95
:104280009FEF9F838E83E881F9810480F581E02D83
:10429000CE011995BCCF91FF06C0CE010E947F1BB5
:1042A00086E0F6018083DF91CF911F910F91FF90FF
:1042B000EF90DF90CF90BF90AF909F908F90089538
:1042C00094FFF1CF5E01F0E1AF0EB11C4E018EE51F
:1042D000880E911C6E817F81EE24E3948501940108
:1042E0004C858C819D810E94531C61E070E080E0D0
:1042F00090E00E9437066E817F81E12C94014C850D
:104300008C819D810E94531C8C858F5F8C8761E01E
:1043100070E080E090E00E9437066E817F81950119
:104320004C858C819D810E941E1C88E0D6018C9357
:10433000BACF92FFB8CF4C854F5F4C879E01225F6A
:104340003F4F6E817F818C819D810E941E1C83E086
:10435000A8CF91FFA8CFCE010E947F1B61E070E043
:1043600080E090E00E9437062C852F5F2C878C819F
:104370009D816E817F81AC014C505F4F32E0DA014C
:104380003C93FC01EB50FF4F2083319624E02083C7
:1043900031961082319623E1208331961082FE01FE
:1043A000E25AFF4F2081FC01E650FF4F2083C15AA3
:1043B000DF4F288131962083E12C01E028E00E9424
:1043C000EC1A87E06ECF96FF6ECF4C854F5F4C871F
:1043D0009E01205F3F4F6E817F81A3CF95FF63CF0A
:1043E000EC81FD8116AEEC81FD81E05CFF4F108217
:1043F00011E01D87E881F9810084F185E02DCE016F
:104400001995F60110834FCF97FF4DCF2C852F5F65
:104410002C878C819D816E817F81AC014C505F4FD8
:1044200036E0DA013C93FC01EB50FF4F20833196DC
:1044300024E02083319610822E85319620832F85AB
:1044400031962083FE01E45AFF4F2081FC01E650A3
:10445000FF4F2083C35ADF4F288131962083E12C00
:1044600001E028E00E94EC1A85E01BCF93FF1BCFF0
:104470006E817F818C819D810E94BB178FEF9FEFA2
:104480009F838E83188619861A861B86D6011C92F6
:104490000ACF8F929F92AF92BF92CF92DF92EF920C
:1044A0000F931F93CF93DF93CDB7DEB7CF54D109CE
:1044B0000FB6F894DEBF0FBECDBF6C018B01FE01BD
:1044C000399687E4DF011D928A95E9F782EA8983AC
:1044D00081E38A83F601ED54FF4F808191E0980FCC
:1044E00090838295807F8B8380E18C838FEF8D8397
:1044F00087EF8E83FB0181818F8380818887828112
:104500008D87BE01615F7F4FC6018F589F4F0E940C
:10451000AA07BE01665E7F4FC60187599F4F0E9462
:10452000AA0783E08BA7D80113968C91811132C022
:1045300082E08EA7F801848188AB858189AB868172
:104540008AAB87818BAB9E012F5F3F4FBE01645BBF
:104550007F4F88248A94982C5401A9012617370785
:10456000D9F0D9018D919D0190E08825FC01EE0FD5
:10457000FF1FEE0FFF1FE456FD4F85919591A5910A
:10458000B491892C9A2CAB2CBB2488269926AA2678
:10459000BB26E4CF81E0CDCF80949094A094B094DA
:1045A000F90180822E969FAE2E972F96AFAE2F9751
:1045B0006096BFAE6097D80118961C92F60166818E
:1045C0007781E18800892FE4848195810E94EC1A2B
:1045D000C15BDF4F0FB6F894DEBF0FBECDBFDF91DA
:1045E000CF911F910F91EF90DF90CF90BF90AF9040
:1045F0009F908F900895875691090C944922CF92ED
:10460000DF92EF920F93CF93DF931F921F92CDB75C
:10461000DEB76C0189599F4F0E94EA0783E48983C2
:1046200089E08A83F60166817781E784068522E046
:10463000AE014F5F5F4F848195810E94EC1AF601B5
:1046400082819381892B59F4E455FF4F8FEF80834A
:104650003196108231961082319681E080830F90DE
:104660000F90DF91CF910F91EF90DF90CF90089551
:104670003F924F925F926F927F928F929F92AF92F2
:10468000BF92CF92DF92EF92FF920F931F93CF933F
:10469000DF9300D000D000D01F92CDB7DEB7FC0171
:1046A000EB59FF4F2081222309F448C36C010E947B
:1046B000690686010D5A1F4FD8018D909D90AD90CF
:1046C000BC90681979098A099B0997FD37C30E9434
:1046D0006906F601ED59FF4FFE83ED83E0806E0D14
:1046E000711D811D911DD8016D937D938D939C93B8
:1046F000139780E490E09A8389835601B4E7AB0E68
:10470000B11C7F97F887EF8396012E5B3F4F3A8766
:10471000298785019E012F5F3F4F34964081AF81ED
:10472000B8856C91E985FA85808191810E94B31AE0
:104730008B7F91F4D5018C91873009F4A0C108F0EA
:104740004DC0833009F467C108F02DC0813009F4F1
:104750001BC1823009F45FC03601B4EB6B0E711CD3
:10476000860104591F4FD801EC91E43108F09FC233
:10477000F0E08827E154FC4D8F4F0C942D3D3026FE
:10478000B72602271B273627A8271C285228BB2814
:10479000C828F3282F297A29292A5726462A572A52
:1047A000CC27EB271428853009F45DC108F483C1B8
:1047B000F601EA58FF4F8081D60181110DC2DB96C8
:1047C0008C91DB97882309F4F9C1D9968C91D997FC
:1047D0008111F4C181E0D9968C93BECF873109F461
:1047E000C1C180F48E3009F476C0863109F0B4CFAF
:1047F000D601DB968C91882309F486C1C6010E94FC
:10480000DB17AACF813309F4EFC1833309F423C244
:104810008F3209F0A1CFF601EA58FF4F1081112322
:1048200009F49ACFE12FEE0FEE0FEE0F99E0199FEA
:10483000902D1124823009F4E92FF0E0E958FF4F60
:10484000EC0DFD1D90E080E03601B9E66B0E711CA9
:10485000960126593F4FA60145595F4FB601605C4E
:104860007F4F811708F078CF0081D3010C93F1803E
:10487000D901FC92E280DA01EC92D601DB969C90A1
:10488000992009F4A8C0E110A6C0BF2DBF70A5E013
:10489000BA13A1C0B02FBC7009F49DC021E0F6018D
:1048A000E959FF4F208326E0289FF001299FF00D52
:1048B0001124E958FF4FEC0DFD1DD601549686E0FA
:1048C00091919D938150E1F7F601EF58FF4F808160
:1048D000918180681EC0F601E758FF4F80818111E9
:1048E0003BCF3897808191819C0121603183208367
:1048F000D601A958BF4F2C91213071F411962C91FB
:10490000203109F029CF12962C91D601D8962C93FC
:1049100081649183808320CF2430C9F4D601A858C4
:10492000BF4F2C91203109F017CF91FD0BC012968B
:104930002C91211107C018962C915E9723FF05C07A
:1049400021E02C9381609260E4CF1C92FBCF293050
:1049500009F002CFD601A858BF4F2C91203109F0A1
:10496000FBCEB601645F7F4F96012E5E3F4FAB01D9
:1049700042595F4FDA014C91DB014D93BD01A21703
:10498000B307A9F78162C5CFF601ED58FF4F8081CB
:104990008530E8F0D601DB968C919601205C3F4F84
:1049A000811104C0D9018C91882389F01082D6012D
:1049B000D9961C92D997DB961C92DB97DE961C92B7
:1049C000D9011C928AE0D601A459BF4F8C938081F3
:1049D0008F5F8083C1CEDB01EC90EE20C9F0BF2D4C
:1049E000BF70A5E0BA1314C0087C91F026E0289FA0
:1049F000F001299FF00D1124E958FF4FEC0DFD1D2A
:104A0000D601549686E091919D938150E1F75CCF59
:104A10000196339626CFF601EF58FF4F2081318162
:104A2000C901916091838083D601AA58BF4F8C91B0
:104A3000811114C012968C9190E0982F88278827B6
:104A40009F7011974C91842BD60153969C938E9313
:104A5000529722603160318320837ECE86E0F6015A
:104A6000E459FF4FB6CFF601EA58FF4F808181111C
:104A700073CE3597808191818D7F84604ACFF60116
:104A8000EA58FF4F8081811167CEEC55F1099601FC
:104A9000285C3F4FDF01AD59BF4F8C918193882334
:104AA00019F0E217F307B1F7F601EF58FF4F8081D5
:104AB000918188602ECFF6017496C6014A96DF0177
:104AC000AE59BF4F2C912193E817F907C1F7F601B2
:104AD000E458FF4F80817397808374969081739719
:104AE000908374962081739720839F70953029F46A
:104AF000887C19F081E0F60187AFF601EF58FF4F8F
:104B000080819181806105CFF60182859385892B13
:104B100009F074CE8EE0D5018C9384E0EB58FF4F02
:104B2000808386E031968083F6018489E958FF4FBF
:104B30008083D60155968C91559731968083F601E6
:104B40008689E758FF4F808357968C915797319607
:104B50008083F601808DE558FF4F808359968C91B4
:104B6000319628C08CE0F501808384E0F601EB5893
:104B7000FF4F808386E031968083D60154968C91D6
:104B8000549731968083F6018589E858FF4F8083DA
:104B900056968C91569731968083F6018789E65810
:104BA000FF4F808358968C9131968083F601818DDA
:104BB000E458FF4F808349E050E048C0F601E05CD4
:104BC000FF4F8081882309F4C7CDF60186AD81119E
:104BD000C3CD81E086AFC0CD52966D917C91C60168
:104BE0000E94BB1780E13BCF8BE2F501808384E01C
:104BF000F601EB58FF4F808389E031968083D60120
:104C000054968C91549731968083F6018589E858A3
:104C1000FF4F808356968C91569731968083F6018C
:104C20008789E658FF4F808358968C913196808310
:104C3000F601818DE458FF4F808383E031968083B5
:104C400031961082319610824CE050E0B501C601D9
:104C50000E94891781CD8CE28C9384E0F6015ECFAF
:104C60007601BDE6EB0EF11CF70180819181019682
:104C70009183808332962081318128173907B8F4D7
:104C800032961182108283E0D5018C938CE03496A9
:104C900080833196108243E050E0B501C6010E9446
:104CA000891781E0F8018083D7011D921C9280E46E
:104CB00090E09A838983F601E55BFF4FAD81BE8169
:104CC000EC9083019E012F5F3F4F4081EF81F8857B
:104CD0006081A985BA858D919C910E94B31A860145
:104CE000095A1F4FF601E15AFF4F6F01811116C09B
:104CF00089819A81892B91F07801D7018D919D91BD
:104D00007D01009741F0DC01ED91FC910190F08173
:104D1000E02DB3011995CE14DF0479F7F8018191E4
:104D200091918F01009739F0DC01ED91FC910280A7
:104D3000F381E02D1995C016D10681F780E02A96FF
:104D40000FB6F894DEBF0FBECDBFDF91CF911F919C
:104D50000F91FF90EF90DF90CF90BF90AF909F901A
:104D60008F907F906F905F904F903F900895F601E5
:104D7000E359FF4F80819181019691838083D60111
:104D8000AF58BF4F2C9120FF1FC01182108282E0CC
:104D9000F801808384E2D5018C938CE0F601EB5816
:104DA000FF4F808383E03196808384E03196808357
:104DB00088E0319680833196108246E050E0B5015C
:104DC000C6010E94891773CFD601A159BF4F2D91FB
:104DD0003C9111972817390708F069CF4AE0429FA4
:104DE000C001439F900D1124813D27E0920738F4C4
:104DF0008D939C93D8011C921182108258CF80ED24
:104E000097E0F6CFF601EF58FF4F8081918180FF48
:104E10004ECF23E02C938F7D9183808389E0F50131
:104E2000808380E1F601EB58FF4F8083319610823A
:104E300043E050E0C4CFF601EF58FF4F80819181ED
:104E400085FF35CF8F7B9183808381E0D5018C9363
:104E500080E1349680833196108243E050E0B501C2
:104E6000C6010E94891784E0F80181C1A6014F584C
:104E70005F4FDA018D919C9186FF19CFD60118966C
:104E8000ED91FC91309709F441C083E1D5018C93F9
:104E90008CE0D601AB58BF4F8C93DF010D90002002
:104EA000E9F7C6018A589F4F2A2F2E1BDC012C934D
:104EB00060E0262F30E0DF010D900020E9F7AD0122
:104EC000415051094E1B5F0BC90103968C0D9D1D6E
:104ED0008C589F4F2417350740F42E0F3F1FD901E0
:104EE0002C91DC012C936F5FE4CFDC011C92DF017D
:104EF0000D900020E9F7AD014E1B5F0B4D5F5F4F3A
:104F0000B501C6010E94891785E0AECFF601EF5BBF
:104F1000FF4F2081222309F48DC09D7FDA018D93FC
:104F20009C9384E0F501808380E1F601EB58FF4F0C
:104F3000808381E0319680833196108244E050E096
:104F4000B501C6010E94891781E1D8018C93AFCECB
:104F5000F601EF58FF4F8081918180FFA8CED601E6
:104F6000AF5BBF4F2C91222309F464C09D7F9183D6
:104F7000808384E0D5018C9380E13496808381E046
:104F8000319680833196108244E050E0B501C6012D
:104F90000E94891781E168CFF601EF58FF4F8081A9
:104FA000918191FF84CE3D978081882309F442C08E
:104FB00086E5D5018C938CE07196808381E03196F3
:104FC00080833196808344E050E0B501C6010E94A1
:104FD000891782E149CFF601EF58FF4F808180FFAA
:104FE00066CE81E0D5018C938CE03496808388E096
:104FF000319680838FEF319680833196808331960E
:10500000808331968083319680839FE131969083AF
:1050100031968083319610824BE050E0B501C60195
:105020000E94891783E120CFF601EF58FF4F80815E
:1050300080FF3DCE86E018CFF601E05CFF4F808117
:10504000811106C0D601DB968C91882309F4C5C076
:10505000F601EF58FF4F808191818F779183808394
:1050600081E0F501808384E0F601EB58FF4F8083F7
:1050700085E03196808383E3319680838BE8319697
:1050800080838EE93196808380E3319680838AE045
:105090003196808348E050E0B501C6010E9489172F
:1050A00087E053CF86010F581F4FD8018C9187FF9F
:1050B000FECD82E0F50180837601F5E7EF0EF11C6D
:1050C00084E0582ED7015C924601B6E78B0E911C06
:1050D000F401108243E050E0B501C6010E94891737
:1050E000F601E959FF4F8081882309F442C0D801B5
:1050F0008D919C911197877F8D939C9389E1F50108
:105100008083D7015C928AE0F4018083D6015496B3
:105110008C91549731968083F6018589E858FF4F2A
:10512000808356968C91569731968083F6018789B5
:10513000E658FF4F808358968C9131968083F60114
:10514000818DE458FF4F808381E0319680833196D2
:10515000108231961082319610824DE050E0B501F8
:10516000C6010E9489178CE0F601E459FF4F808345
:105170009ECD88E0F9CFF601EF58FF4F808180FF88
:1051800096CD3A971082C6010E94641889E0DDCE60
:10519000F601EF58FF4F8081918190FF88CD81FF0C
:1051A0001EC081E1F501808384E0F601EB58FF4FDA
:1051B000808382E031968083D60152969C915297EB
:1051C00053968C913196908331968F70808345E011
:1051D00050E0B501C6010E9489178AE045CEC6019C
:1051E0000E94641864CDD601D9968C91D99781110B
:1051F0005ECDDB968C91DB97811159CDDE968C913B
:10520000DE97811154CDF601E05CFF4F8081811162
:105210004ECDF196808191818F7E918380838AE14A
:10522000F50180838CE0F601EB58FF4F808381E02D
:105230003196808318968D919C913196892B69F0D7
:1052400083E0808344E050E0B501C6010E948917E5
:1052500081E0F60184838BE078CE82E0F2CFF60124
:10526000EF58FF4F8081918184FF40C0D601149692
:105270001C921497877F9183808389E1F501808355
:1052800084E0F601EB58FF4F80838AE031968083FB
:1052900054968C91549731968083F6018589E8580D
:1052A000FF4F808356968C91569731968083F601F6
:1052B0008789E658FF4F808358968C91319680837A
:1052C000F601818DE458FF4F808381E03196808321
:1052D0003196108231961082319610824DE050E066
:1052E000B501C6010E9489178CE02FCE82FFDFCC6A
:1052F00080E1BACD96012F583F4F3C832B83D901D3
:105300004D905C9043FED3CC7601BAE1EB0EF11CDC
:1053100048E050E065E774E0C7010E943F3E892BFA
:10532000C1F433243394F60132AE14AE15AE460107
:10533000F6E68F0E911CD4011C9246E150E06EE718
:1053400074E0C7010E943F3E892B09F066C0F60158
:1053500034AEF601E559FF4F8081811116C03197B7
:105360008081853291F431978081883071F443E1F6
:1053700050E060EC74E0C7010E943F3E892B29F4A5
:1053800081E0F601E859FF4F8083F60183AD81117A
:1053900005C0E05CFF4F8081882331F0F601E959B8
:1053A000FF4F80818111E5CEE89441F8AB81BC814B
:1053B0004D925C9289E0F501808384E0F601EB5820
:1053C000FF4F808387E031968083D60154968C917D
:1053D000549731968083F6018589E858FF4F808382
:1053E00056968C91569731968083F6018789E658B8
:1053F000FF4F808358968C9131968083F601818D82
:10540000E458FF4F8083319610824AE050E0B501A6
:10541000C6010E9489178DE098CD46E150E065E90C
:1054200074E0C7010E943F3E892B31F4D4013C92C5
:10543000F60134AE35AE8DCF43E150E06CEA74E056
:10544000C7010E943F3E892B09F083CFD4013C92D3
:1054500080CFF601EF58FF4F808181FF28CCD60125
:10546000A859BF4F8C91882321F081E0D601DE96A8
:105470008C93D60115961C92159716961C9216972A
:1054800017961C92118210828FE0EECCF601E35940
:10549000FF4F808191810196893E23E0920718F4A5
:1054A0009183808304CC118210828AE04ECDF60174
:1054B000EF58FF4F808182FFFACB1182108280E487
:1054C000F501282F11922A95E9F7D3011D928A95AB
:1054D000E9F7F60113AE12AE11AEE959FF4F108293
:1054E000B7971082D601DF961C92DF97DE961C924A
:1054F000B896108272CE4F925F926F927F928F9287
:105500009F92AF92BF92CF92DF92EF92FF920F9352
:105510001F93CF93DF93EC017B018A81FB01808392
:105520008B8181838C8182838D8183833496412C0E
:10553000512C320104E010E09F012F5F3F4FCF015B
:105540000296DF011396A8010C5F1F4F8A809B8093
:10555000AC80BD80481459046A047B04C8F4AA8551
:10556000BB85A40FB51F14974C9111962C911197E0
:1055700012969C91129713968C914083218392836B
:1055800083838FEF481A580A680A780A3496D4CF72
:105590004C8540834D85F90140832E85FC01208395
:1055A0008F858C93F701E00FF11F412C512C3201B4
:1055B000AF019F012F5F3F4FCF010296DF0113968E
:1055C0000C5F1F4F8C849D84AE84BF8448145904A3
:1055D0006A047B04D8F4CF01841B950BAC89BD8988
:1055E000A80FB91F3C9111962C91119712969C917E
:1055F000129713968C9130832183928383838FEF4C
:10560000481A580A680A780A3496D3CF4E894083DC
:105610004F89F9014083288DFC012083898D8C936B
:10562000412C512C32018E899F89A88DB98D481645
:1056300059066A067B0680F55201AA0CBB1CEC8D4C
:10564000FD8DEA0DFB1DA081B181FD0101900020BF
:10565000E9F731976F01CA1ADB0AA60170E060E032
:10566000C701800F911F0E94A80C0C5F1F4F8C8DEB
:105670009D8DA80EB91EF50160817181A601C7013B
:10568000800F911F0E942F3E0C0D1D1DFFEF4F1A22
:105690005F0A6F0A7F0AC7CFC801DF91CF911F91C0
:1056A0000F91FF90EF90DF90CF90BF90AF909F90C1
:1056B0008F907F906F905F904F900895EF92FF9240
:1056C0000F931F93CF93DF938C017B01DC01129624
:1056D0002C911297FB012193CF011396ED91FC9130
:1056E000EF0109900020E9F72197CE1BDF0BAE01F7
:1056F00070E060E00E94A80CD80113966D917C9137
:10570000AE01C70105960E942F3ECE010596DF919E
:10571000CF911F910F91FF90EF900895CF92DF925C
:10572000EF92FF920F931F93CF93DF936C01EB01E6
:10573000DC0112968C911297888313968C911397A3
:1057400089831496ED91FC91DF010D900020E9F71B
:105750008D01015011090E1B1F0BA80170E060E0C4
:10576000CE0102960E94A80CF60164817581A80101
:10577000CE0106960E942F3EC8010696F601A6812C
:10578000B781FD0101900020E9F731977F01EA1A06
:10579000FB0AA70170E060E08C0F9D1F0E94A80C1F
:1057A000065F1F4FD60116966D917C91A701CE0121
:1057B000800F911F0E942F3E0E0D1F1DF601A08528
:1057C000B185FD0101900020E9F731977F01EA1AC8
:1057D000FB0AA70170E060E0CE01800F911F0E94DC
:1057E000A80C0C5F1F4FD60118966D917C91A701F4
:1057F000CE01800F911F0E942F3EC701800F911F85
:10580000F6016285438534852585C80FD91F6883D5
:1058100049833A832B830496DF91CF911F910F9197
:10582000FF90EF90DF90CF900895CF93DF93EC013E
:10583000623008F45DC04115510509F459C0FA0100
:105840008081813009F074C0CE0187589F4F61502C
:10585000693208F068E2262F30E0BA016F5F7F4FAF
:10586000A9010E942F3EFE01E959FF4F218D328D83
:10587000438D82AD93ADA4AD281739074A0781F156
:1058800080959095A09582239323A42385AF96AF0E
:10589000A7AF22AF33AF44AF918D9F7081E09730B7
:1058A00019F0923008F080E02FEF290F233008F430
:1058B00082602DEF290F233008F4846095509330D7
:1058C00008F48860DE01A055BF4F9C91981741F005
:1058D000909598239F7025AD207F922B95AF8C9348
:1058E000FE01EF54FF4F8081918101969183808367
:1058F000DE01A959BF4FFE01E155FF4F80818111A3
:105900000AC019968C911997811105C051968C91F6
:1059100051978823F1F0BE0169557F4FED91FC91BD
:1059200011970190F081E02DCD01DF91CF91199475
:10593000813379F4623069F0CE0187589F4F62500D
:10594000693208F068E2262F30E0BA016E5F7F4FBF
:1059500087CFDF91CF9108952F923F924F925F9220
:105960006F927F928F929F92AF92BF92CF92DF926F
:10597000EF92FF920F931F93CF93DF93CDB7DEB7D4
:105980002E970FB6F894DEBF0FBECDBF8C016B0112
:10599000DB018D909D90AD90BC90FC018281938144
:1059A000A481B58188159905AA05BB0570F4B401D9
:1059B000660F771F660F771F828593850E94493D8A
:1059C000D8011B969C938E931A97F801828293823A
:1059D000A482B582C60140E050E0BA01A4E0EA2EFC
:1059E000F12C98012A5F3F4FDC011596EC91159739
:1059F00016964C901697512C712C612C320155241F
:105A000044245E2A1496EC9114974E2A1796EC9132
:105A10007E2AD7011701E4E02E0E311C7101049695
:105A2000F80182809380A480B580481559056A05E5
:105A30007B05A8F446825782608671861497A284FB
:105A4000B384AA0DBB1DE4E0BE2EF90101900D92B6
:105A5000BA94E1F74F5F5F4F6F4F7F4FC5CF84859B
:105A60009585A685B78584159505A605B70570F4B7
:105A7000B201660F771F660F771F848995890E9490
:105A8000493DD80155969C938E935497F8014486CE
:105A9000558666867786C601820D931D412C512C52
:105AA00032011C019801205F3F4FDC0111966C917F
:105AB000119712968C901297912CB12CA12C540115
:105AC00099248824962A6C91862A13966C91B62A7A
:105AD000B4E0EB0EF11CF8014485558566857785A9
